:100000000C9441010C9472010C9472010C947201D5
:100010000C9472010C9472010C9472010C94720194
:100020000C9472010C9472010C9472010C94720184
:100030000C9472010C9472010C9472010C94720174
:100040000C9472010C9472010C9472010C94720164
:100050000C9472010C9472010C9472010C94AA0617
:100060000C9472010C9474060C944A060C94720160
:100070000C9472010C9472010C9472010C94720134
:100080000C9472010C9472010C9472010C94720124
:100090000C9472010C9472010C9472010C94720114
:1000A0000C9472010C9472010C9472010C94720104
:1000B0000C9472010C9472010C9472010C947201F4
:1000C0000C9472010C9472010C9472010C947201E4
:1000D0000C9472010C9472010C9472010C947201D4
:1000E0000C9472010C9457020C9434020C948C03FF
:1000F0000C94EA020C94F4060C9494030C940702FA
:100100000C9482030C9463030C946B030C949A0379
:100110000C9443020C9490030C9497040C94FC03ED
:100120000C9467030C9486030C9478030C94CB0313
:100130000C945F030C949D020C943C040C94740387
:100140000C9499030C947E030C949E030C94590315
:100150000C9465020C946E030C94EF050C949804B7
:1001600000002100240027002A002D003000330069
:1001700001010000040107010A010000220025001E
:1001800028002B002E003100340002010000050180
:1001900008010B01000020002300260029002C008C
:1001A0002F003200000100000301060109010505CE
:1001B0000505070508080808020202020A0A0808DD
:1001C000040404040101010101010101030303030B
:1001D00003030303040707070C0C0C0C0C0C0C0C9A
:1001E0000202020206060606060606060B0B0B0BAB
:1001F0000B0B0B0B010210202008081020401020D0
:1002000040800201020108040201010204081020DA
:1002100040808040201008040201800402018040D8
:100220002010080402010804020101020408102041
:100230004080010204081020408000000A0B0209DF
:100240000C0D0E0807030401000000000000000070
:10025000000000000000000000000000000000009E
:10026000000000000000121110000000000000005B
:10027000000000000000000000000000000000007E
:10028000F40611241FBECFEFD1E2DEBFCDBF00E0E8
:100290000CBF12E0A0E0B2E0ECE7FBE100E00BBF36
:1002A00002C007900D92A037B107D9F723E0A0E76D
:1002B000B2E001C01D92A83AB207E1F711E0C1E433
:1002C000D1E000E006C021970109802FFE010E94C5
:1002D000B40DC034D10780E00807A9F70E94AB072E
:1002E0000C94BC0D0C94000096E0899FD001112461
:1002F000A75CBC4F90967C936E935F9791E091962C
:100300009C939197E091A603F091A7039091A50388
:10031000992339F0309751F0811108C0809155032D
:100320001994309719F05C968C91FACF0895CF927A
:10033000DF92EF92FF920F931F9396E0899FF00157
:100340001124E75CFC4F11A2278D30A1213031052B
:1003500051F178F02230310509F451C023303105D4
:1003600009F452C01F910F91FF90EF90DF90CF9052
:1003700008956623B9F361E070E00E9474012FB71D
:10038000F8948091800290918102A0918202B091B4
:1003900083022FBF8093910390939203A0939303C2
:1003A000B0939403DFCF9FB7F894C0908002D090B1
:1003B0008102E0908202F09083029FBF009191033E
:1003C000109192032091930330919403C01AD10AA3
:1003D000E20AF30A0091A3031091A40330E020E0A5
:1003E0000C151D052E053F0550F462E070E01F91CD
:1003F0000F91FF90EF90DF90CF900C9474016111FA
:10040000B1CF63E070E0F3CF70E060E0F0CFAF9287
:10041000BF92CF92DF92EF92FF920F931F93CF93F1
:10042000DF936C017B018B01040F151FEB015E0153
:10043000AE18BF08C017D10759F06991D601ED91E8
:10044000FC910190F081E02DC6011995892B79F777
:10045000C501DF91CF911F910F91FF90EF90DF9039
:10046000CF90BF90AF900895FC01538D448D252F00
:1004700030E0842F90E0821B930B541710F0CF963E
:10048000089501970895FC01918D828D981761F070
:10049000A28DAE0FBF2FB11D5D968C91928D9F5F87
:1004A0009F73928F90E008958FEF9FEF0895FC0166
:1004B000918D828D981731F0828DE80FF11D858D19
:1004C00090E008958FEF9FEF0895FC01918D228DAC
:1004D000892F90E0805C9F4F821B91098F73992731
:1004E000089584E892E00E94650221E0892B09F4D6
:1004F00020E0822F0895FC01A48DA80FB92FB11D13
:10050000A35ABF4F2C91848D90E001968F73992749
:10051000848FA689B7892C93A089B1898C91837027
:1005200080648C93938D848D981306C00288F38920
:10053000E02D80818F7D80830895EF92FF920F934D
:100540001F93CF93DF93EC0181E0888F9B8D8C8D7F
:1005500098131AC0E889F989808185FF15C09FB773
:10056000F894EE89FF896083E889F9898081837036
:10057000806480839FBF81E090E0DF91CF911F91E5
:100580000F91FF90EF900895F62E0B8D10E00F5F06
:100590001F4F0F731127E02E8C8D8E110CC00FB6DC
:1005A00007FCFACFE889F989808185FFF5CFCE0174
:1005B0000E947B02F1CFEB8DEC0FFD2FF11DE35A72
:1005C000FF4FF0829FB7F8940B8FEA89FB898081F7
:1005D0008062CFCFCF93DF93EC01888D8823B9F071
:1005E000AA89BB89E889F9898C9185FD03C080813E
:1005F00086FD0DC00FB607FCF7CF8C9185FFF2CFBB
:10060000808185FFEDCFCE010E947B02E9CFDF9193
:10061000CF91089580E090E0892B29F00E9471022B
:1006200081110E94000080E090E0892B49F080E079
:1006300090E0892B29F00E94000081110E940000A7
:1006400080E090E0892B49F080E090E0892B29F050
:100650000E94000081110E94000080E090E0892B40
:1006600049F080E090E0892B29F00E940000811180
:100670000C94000008958150823108F05AC0E82F90
:10068000F0E08827E95BFC4F8F4F0C94B40D6703B3
:100690006B0359035F03630399036E0374037803C9
:1006A0007E03820386038C039003990394039A03C9
:1006B0009E03809180008F778093800008958091C1
:1006C00080008F7DF9CF80918000877FF5CF84B542
:1006D0008F7784BD089584B58F7DFBCF8091B00066
:1006E0008F778093B00008958091B0008F7DF9CF0F
:1006F000809190008F778093900008958091900072
:100700008F7DF9CF80919000877FF5CF8091A000F9
:100710008F778093A00008958091A0008F7DF9CFFE
:100720008091A000877FF5CF809120018F77809303
:1007300020010895809120018F7DF9CF80912001C3
:10074000877FF5CFCF93DF93282F30E0F901E65C68
:10075000FD4F8491F901EC50FE4FD491F901E2551F
:10076000FE4FC491CC23A1F081110E943B03EC2FDA
:10077000F0E0EE0FFF1FEC56FE4FA591B491EC9107
:10078000ED2381E090E009F480E0DF91CF910895BE
:1007900080E090E0FACF862F0C94A2031F93CF93B2
:1007A000DF93282F30E0F901E65CFD4F8491F901D9
:1007B000EC50FE4FD491F901E255FE4FC491CC2389
:1007C000A9F0162F81110E943B03EC2FF0E0EE0FF1
:1007D000FF1FE658FE4FA591B4918FB7F894EC91A6
:1007E000111108C0D095DE23DC938FBFDF91CF912C
:1007F0001F910895DE2BF8CF862F642F0C94CE0323
:10080000CF93DF9390E0FC01EC50FE4F2491825592
:100810009E4FFC0184918823C9F090E0880F991FB6
:10082000FC01E05AFE4FA591B491FC01E658FE4F41
:10083000C591D49161110DC09FB7F8948C9120950A
:1008400082238C938881282328839FBFDF91CF91B7
:100850000895623051F49FB7F8943C91822F8095AF
:1008600083238C93E8812E2BEFCF8FB7F894EC91F4
:100870002E2B2C938FBFEACF862F642F0C9400046D
:100880003FB7F8948091710290917202A091730227
:10089000B091740226B5A89B05C02F3F19F00196B0
:1008A000A11DB11D3FBFBA2FA92F982F8827BC01CA
:1008B000CD01620F711D811D911D42E0660F771FF2
:1008C000881F991F4A95D1F708958F929F92AF92F2
:1008D000BF92CF92DF92EF92FF924B015C010E9498
:1008E00040046B017C010E9440046C197D098E0953
:1008F0009F09683E734081059105A8F321E0821AA3
:100900009108A108B10888EEC80E83E0D81EE11C4A
:10091000F11C81149104A104B10429F7FF90EF9018
:10092000DF90CF90BF90AF909F908F9008950895E3
:1009300090E080E00895CF93DF93EC0160E08E813A
:100940000E94CE0361E08E810E94CE0360E08E8122
:100950000E94CE038BE891E00197F1F7DF91CF91F0
:100960000895CF92DF92EF92FF920F931F93CF9350
:10097000DF936C017C0187E0E80EF11CD0E0C0E061
:10098000062F10E0B8010C2E02C0759567950A94E9
:10099000E2F76170F70181917F010E94CE032196F9
:1009A000C430D10579F7C601DF91CF911F910F9126
:1009B000FF90EF90DF90CF900C949B04CF92DF924A
:1009C000EF92FF920F931F93CF93DF93EC01F62EDC
:1009D000642F8C810E94CE038D818F3F19F060E0DF
:1009E0000E94CE030F2D10E08F8584FF25C06E017D
:1009F00087E0C80ED11CF12CE12CB8010E2C02C0EE
:100A0000759567950A94E2F76170F60181916F011F
:100A10000E94CE03FFEFEF1AFF0A88E0E816F10408
:100A200061F7CE01DF91CF911F910F91FF90EF9071
:100A3000DF90CF900C949B04B80184E07595679586
:100A40008A95E1F7CE010E94B1046F2DCE01DF91AE
:100A5000CF911F910F91FF90EF90DF90CF900C946A
:100A6000B10440E061E081E293E00E94DE048BE3A8
:100A70009FE10197F1F70895CF93DF93823029F436
:100A800090913003986090933003809334031092D8
:100A9000350380E48093360380E18093370380E55B
:100AA0008093380361E0809125030E9400048091C7
:100AB00026038F3F19F061E00E94000461E08091FD
:100AC00027030E940004C1E2D3E09E01215233407B
:100AD0008091300384FD0BC084E090E021962817BC
:100AE000390744F461E08E810E940004EECF88E073
:100AF00090E0F4CF8BE39DE00197F1F760E0809107
:100B000025030E94CE0360E0809127030E94CE035C
:100B1000809126038F3F19F060E00E94CE03609120
:100B2000300364FD3DC063E081E293E00E94B104C4
:100B3000CBE4D6E4CE010197F1F763E081E293E0E4
:100B40000E94B1042197F1F763E081E293E00E94F3
:100B5000B10483E592E00197F1F762E081E293E06E
:100B60000E94B10460913003606240E081E293E052
:100B70000E94DE0484E08093310340E06CE081E277
:100B800093E00E94DE040E94310582E080933203EC
:100B900040E066E081E293E0DF91CF910C94DE04C7
:100BA000606240E081E293E00E94DE048BE496E420
:100BB0000197F1F760913003606240E081E293E0D9
:100BC0000E94DE0483E592E00197F1F76091300323
:100BD000606240E081E293E00E94DE04C3CF41E026
:100BE0000E94DE0481E090E00895FB010190002066
:100BF000E9F73197AF01461B570BDC01ED91FC91F2
:100C00000280F381E02D19948F929F92AF92BF9250
:100C10000F931F93CF93DF93CDB7DEB7A1970FB696
:100C2000F894DEBF0FBECDBF19A2423008F44AE0EF
:100C30008E010F5D1F4F842E912CB12CA12CA5018C
:100C400094010E94920DE62FB901CA01EA3004F521
:100C5000E05DD801EE938D01232B242B252B79F712
:100C600090E080E0109729F0BD0181E293E00E94BE
:100C7000F505A1960FB6F894DEBF0FBECDBFDF918C
:100C8000CF911F910F91BF90AF909F908F9008953B
:100C9000E95CDFCF1F920F920FB60F9211240BB6B3
:100CA0000F922F933F934F935F936F937F938F9305
:100CB0009F93AF93BF93EF93FF9384E892E00E94DA
:100CC0007B02FF91EF91BF91AF919F918F917F91A7
:100CD0006F915F914F913F912F910F900BBE0F90AD
:100CE0000FBE0F901F9018951F920F920FB60F9284
:100CF00011240BB60F922F938F939F93EF93FF9333
:100D0000E0919402F09195028081E0919A02F09135
:100D10009B0282FD1DC0908180919D028F5F8F7329
:100D200020919E02821741F0E0919D02F0E0EC5785
:100D3000FD4F958F80939D02FF91EF919F918F9131
:100D40002F910F900BBE0F900FBE0F901F90189514
:100D50008081F2CF1F920F920FB60F9211242F9322
:100D60003F938F939F93AF93BF9380918002909115
:100D70008102A0918202B09183023091700223E03F
:100D8000230F2D3758F50196A11DB11D2093700238
:100D90008093800290938102A0938202B093830299
:100DA0008091710290917202A0917302B0917402CD
:100DB0000196A11DB11D8093710290937202A093C0
:100DC0007302B0937402BF91AF919F918F913F9145
:100DD0002F910F900FBE0F901F90189526E8230FAC
:100DE0000296A11DB11DD2CF1092870210928602E9
:100DF00088EE93E0A0E0B0E08093880290938902AF
:100E0000A0938A02B0938B0288E192E090938502CE
:100E10008093840285EC90E09093910280939002FD
:100E200084EC90E0909393028093920280EC90E0A7
:100E3000909395028093940281EC90E090939702B6
:100E40008093960282EC90E09093990280939802AE
:100E500086EC90E090939B0280939A0210929D0200
:100E600010929E0210929F021092A00210923B03D9
:100E700010923F0310923E031092400386E392E0EB
:100E800090933A0380933903E5E5F3E010821482EE
:100E900013821582369683E0E139F807B9F784E0CA
:100EA00092E090939C0380939B0381E092E0909367
:100EB0009E0380939D0394E090939F0383E080932F
:100EC000A00328E032E030939A03209399032AE0AC
:100ED00030E03093A2032093A10324EF31E030935C
:100EE000A4032093A3031092A7031092A6031092C9
:100EF0009503109296031092970310929803109204
:100F0000A50310922403109223032AE232E03093C7
:100F100022032093210327E0209325032FEF209322
:100F2000260326E02093270325E0209328039093AF
:100F3000290380932A0382E080932B0310922C03D1
:100F400010922D0310922E0310922F031092300353
:100F500081E00C943C05789484B5826084BD84B5AE
:100F6000816084BD85B5826085BD85B5816085BDA4
:100F700080916E00816080936E001092810080915C
:100F800081008260809381008091810081608093E4
:100F90008100809180008160809380008091B10009
:100FA00084608093B1008091B00081608093B00034
:100FB0008091910082608093910080919100816086
:100FC0008093910080919000816080939000809147
:100FD000A10082608093A1008091A1008160809334
:100FE000A1008091A00081608093A00080912101E8
:100FF0008260809321018091210181608093210191
:101000008091200181608093200180917A0084602A
:1010100080937A0080917A00826080937A00809138
:101020007A00816080937A0080917A008068809352
:101030007A001092C100E0919402F0919502C2E012
:10104000C083E0919002F09191021082E0919202AF
:10105000F09193028FEC808310929C02E0919802B1
:10106000F091990286E08083E0919602F0919702D8
:10107000808180618083E0919602F0919702808167
:1010800088608083E0919602F09197028081806869
:101090008083E0919602F091970280818F7D80831A
:1010A00082E00E943C0561E08DE10E94000461E065
:1010B0008EE10E94000460E081E00E940004C09381
:1010C000000260E088E00E94000460E08DE00E9481
:1010D000000461E08CE00E94000461E089E00E946D
:1010E000000410927502109276021092770210920C
:1010F000780260E08EE10E94CE0360E08DE10E9404
:10110000CE03222423940FEF1FEF36E0332E2092DC
:10111000A5038FB7F89440918002509181026091AD
:101120008202709183028FBF809195039091960304
:10113000A0919703B0919803481B590B6A0B7B0B46
:101140008091A1039091A203B0E0A0E084179507DD
:10115000A607B70708F00AC1C0E080919F03C8172F
:1011600060F4E0919B03F0919C03EC0FF11D62E0B1
:1011700080810E940004CF5FF0CF912C8091A0036A
:10118000981608F061C0E92CF12CE0919D03F091D4
:101190009E03EE0DFF1D61E080810E940004E0913E
:1011A0009D03F0919E03EE0DFF1D60E080810E9483
:1011B000CE0381E090E0A0E0B0E0092C04C0880FED
:1011C000991FAA1FBB1F0A94D2F75C016C01C0943F
:1011D000D094812C80919F038816F8F4C82DD0E01C
:1011E000E0919B03F0919C03EC0FFD1F80810E9416
:1011F000A2032496CC0FDD1FC75CDC4F892B41F482
:10120000888199818A299B29998388838394E2CF55
:10121000888199818C219D21F7CFE0919D03F091E8
:101220009E03EE0DFF1D61E080810E94CE03809140
:101230009D0390919E03E80EF91E60E0F701808106
:101240000E94000493949ACFC9E3D3E0FE01878DF6
:1012500090A1892B21F4148E168F058F11A236963A
:1012600023E0E537F20799F7F12C80919F03F816F8
:1012700008F052C0E12CCF2CD12CCC0CDD1CC601C7
:101280008F5B9C4F6C012091A003E21608F042C0D6
:10129000F601608171810E2C02C0769567950A94E3
:1012A000E2F7F29E900111242E0D311DE9E3F3E0E7
:1012B00080E0458D568D2417350709F4F5C18F5F01
:1012C00036968A30B1F760FF23C0E9E3F3E090E09F
:1012D00080E0448D411117C0E0919903F0919A0389
:1012E000E20FF31F6081389EF001399EF00D11244A
:1012F000E75CFC4F648F368F258F10A2178E61E05C
:101300000E94970105C0019636968A30910509F72B
:10131000E394B9CFF394A9CF80E099A19111892FDB
:101320002696F3E0C537DF07C1F79FB7F8944091E1
:1013300080025091810260918202709183029FBF6E
:10134000409395035093960360939703709398038B
:10135000882361F080915A03882341F080915803DB
:1013600090915903C0915503019719F01092A5036C
:10137000C0E0C0937F026C2F84E892E00E949D023F
:10138000CC2399F080917D0290917E02FC01E75878
:10139000FD4FC083019690937E0280937D0268EC9E
:1013A00070E080E090E00E94650480917D02909161
:1013B0007E02049709F046C064E670E080E090E0A9
:1013C0000E9465048091790290917A02913309F02C
:1013D00085C031E020E0813309F030E0832F922F87
:1013E00020917B02213311F090E080E020917C027B
:1013F00061E0213309F075C0019709F072C08DE1F9
:101400000E94CE036CED75E080E090E00E946504E0
:1014100060E08DE10E94CE0310927E0210927D0268
:101420006EE372E084E892E00E94F5056CE372E0FE
:1014300084E892E00E94F50568EC70E080E090E0BE
:101440000E94650480917B00877F80937B00809160
:10145000000220E4829FC0011124816080937C00FF
:1014600080917A00806480937A0080917A0086FD72
:10147000FCCF8091780060917900762F682F072E3D
:10148000000C880B990B0E946B0C20E030E849E8B7
:1014900054E40E94200D20E030E040E256E40E9437
:1014A000C80B6B017C014B015C01C0927502D092AC
:1014B0007602E0927702F092780220E030E040EA93
:1014C00051E40E94C30B87FF18C00E9431056FE3EF
:1014D00072E081E293E00E94F50527C090E080E091
:1014E0007FCF8EE10E94CE036CED75E080E090E04E
:1014F0000E94650460E08EE18DCF20E030E040EF97
:1015000051E4C701B6010E941B0D18162CF50E946C
:1015100031056EE472E081E293E00E94F50564E13A
:1015200070E080E090E00E94650488E00E94A203E1
:1015300061E0892B09F460E089E00E94CE038DE030
:101540000E94A20361E0019709F060E08CE00E9434
:10155000CE030E940A03DBCD0E943105A70196014C
:10156000C701B6010E948D0D60E672E081111AC0BC
:1015700026013701E89477F82FEF3FEF4FE75FE759
:10158000C301B2010E948D0D811113C02FEF3FEFF7
:101590004FE75FE7C301B2010E94C30B18164CF47A
:1015A00064E672E081E293E00E94F5056CE672E089
:1015B00090CF2FEF3FEF4FE75FE4C701B6010E94E6
:1015C0001B0D18161CF468E672E0ECCF2FEF3FEF0E
:1015D0004FE75FECC701B6010E94C30B87FDF3CF55
:1015E00020E030E0A901C701B6010E94C30B87FFCC
:1015F0000CC041E06DE281E293E00E94DE0446010E
:101600005701B7FAB094B7F8B0942AE037ED43EA3F
:101610005BE3C501B4010E94570B4B015C010E94C2
:101620003A0C6B017C010E94690C9B01AC01C50165
:10163000B4010E94560B4B015C014AE0C701B601A0
:101640000E94040641E06EE281E293E00E94DE0423
:1016500020E030E040E251E4C501B4010E94200DD9
:101660004B015C010E943A0C6B01F12CE12C4AE029
:10167000C701B6010E940406C701B6010E94690CA9
:101680009B01AC01C501B4010E94560B20E030E083
:1016900040E251E40E94200D0E943A0C90E080E06C
:1016A0004AE00E94040682CF61702ACE5058BB27C0
:1016B000AA270E946E0B0C94E10C0E94D30C38F008
:1016C0000E94DA0C20F039F49F3F19F426F40C94B0
:1016D000D00C0EF4E095E7FB0C94CA0CE92F0E94A5
:1016E000F20C58F3BA17620773078407950720F0C6
:1016F00079F4A6F50C94140D0EF4E0950B2EBA2F88
:10170000A02D0B01B90190010C01CA01A001112407
:10171000FF27591B99F0593F50F4503E68F11A16B3
:10172000F040A22F232F342F4427585FF3CF469544
:1017300037952795A795F0405395C9F77EF41F1666
:10174000BA0B620B730B840BBAF09150A1F0FF0F30
:10175000BB1F661F771F881FC2F70EC0BA0F621F1C
:10176000731F841F48F4879577956795B795F7950C
:101770009E3F08F0B0CF9395880F08F09927EE0FA1
:101780009795879508950E94A60C08F481E0089526
:101790000E94DC0B0C94E10C0E94DA0C58F00E94C1
:1017A000D30C40F029F45F3F29F00C94CA0C51117E
:1017B0000C94150D0C94D00C0E94F20C68F3992334
:1017C000B1F3552391F3951B550BBB27AA2762173D
:1017D0007307840738F09F5F5F4F220F331F441F4A
:1017E000AA1FA9F335D00E2E3AF0E0E832D091507E
:1017F0005040E695001CCAF72BD0FE2F29D0660F6B
:10180000771F881FBB1F261737074807AB07B0E8AD
:1018100009F0BB0B802DBF01FF2793585F4F3AF0B3
:101820009E3F510578F00C94CA0C0C94150D5F3F47
:10183000E4F3983ED4F3869577956795B795F79539
:101840009F5FC9F7880F911D9695879597F9089521
:10185000E1E0660F771F881FBB1F621773078407BD
:10186000BA0720F0621B730B840BBA0BEE1F88F7CC
:10187000E09508950E94FA0C88F09F5798F0B92FD0
:101880009927B751B0F0E1F0660F771F881F991FB5
:101890001AF0BA95C9F714C0B13091F00E94140D36
:1018A000B1E008950C94140D672F782F8827B85F46
:1018B00039F0B93FCCF3869577956795B395D9F70D
:1018C0003EF490958095709561957F4F8F4F9F4F17
:1018D0000895E89409C097FB3EF490958095709523
:1018E00061957F4F8F4F9F4F9923A9F0F92F96E96C
:1018F000BB279395F695879577956795B795F111E1
:10190000F8CFFAF4BB0F11F460FF1BC06F5F7F4F7D
:101910008F4F9F4F16C0882311F096E911C077238F
:1019200021F09EE8872F762F05C0662371F096E898
:10193000862F70E060E02AF09A95660F771F881F67
:10194000DAF7880F9695879597F90895990F00080B
:10195000550FAA0BE0E8FEEF16161706E807F90781
:10196000C0F012161306E407F50798F0621B730B1C
:10197000840B950B39F40A2661F0232B242B252B9D
:1019800021F408950A2609F4A140A6958FEF811D40
:10199000811D089597F99F6780E870E060E00895E1
:1019A0009FEF80EC089500240A9416161706180677
:1019B0000906089500240A94121613061406050653
:1019C0000895092E0394000C11F4882352F0BB0FE4
:1019D00040F4BF2B11F460FF04C06F5F7F4F8F4F47
:1019E0009F4F089557FD9058440F551F59F05F3F82
:1019F00071F04795880F97FB991F61F09F3F79F031
:101A000087950895121613061406551FF2CF4695B2
:101A1000F1DF08C0161617061806991FF1CF869534
:101A20007105610508940895E894BB276627772718
:101A3000CB0197F908950E94A60C08F48FEF089542
:101A40000E94330D0C94E10C0E94D30C38F00E94DC
:101A5000DA0C20F0952311F00C94CA0C0C94D00CE5
:101A600011240C94150D0E94F20C70F3959FC1F394
:101A7000950F50E0551F629FF001729FBB27F00D3C
:101A8000B11D639FAA27F00DB11DAA1F649F662791
:101A9000B00DA11D661F829F2227B00DA11D621FE0
:101AA000739FB00DA11D621F839FA00D611D221F9A
:101AB000749F3327A00D611D231F849F600D211D7E
:101AC000822F762F6A2F11249F5750409AF0F1F001
:101AD00088234AF0EE0FFF1FBB1F661F771F881F6A
:101AE00091505040A9F79E3F510580F00C94CA0CCC
:101AF0000C94150D5F3FE4F3983ED4F386957795EB
:101B00006795B795F795E7959F5FC1F7FE2B880F0F
:101B1000911D9695879597F908950E94A60C880BBC
:101B2000990B0895A1E21A2EAA1BBB1BFD010DC043
:101B3000AA1FBB1FEE1FFF1FA217B307E407F5077D
:101B400020F0A21BB30BE40BF50B661F771F881F59
:101B5000991F1A9469F760957095809590959B01EF
:101B6000AC01BD01CF010895EE0FFF1F881F8BBF91
:0C1B70000790F691E02D1994F894FFCF37
:101B7C00013B3A3E38393D3C313233343536373817
:101B8C00392A3023000000009D0207023402EA02C9
:101B9C0065024302570200000000EF05070298049B
:101BAC009704000000003C04FC03CB030D0A005317
:101BBC006963616B6C696B20647573747500536930
:101BCC0063616B6C696B2079756B73656C64690010
:101BDC006E616E00696E66006F7666002A430000C7
:00000001FF
